{
  "contractName": "EventContract",
  "abi": [
    {
      "inputs": [],
      "name": "event_id",
      "outputs": [
        {
          "internalType": "uint256",
          "name": "",
          "type": "uint256"
        }
      ],
      "stateMutability": "view",
      "type": "function",
      "constant": true
    },
    {
      "inputs": [
        {
          "internalType": "uint256",
          "name": "",
          "type": "uint256"
        }
      ],
      "name": "events",
      "outputs": [
        {
          "internalType": "string",
          "name": "name",
          "type": "string"
        },
        {
          "internalType": "string",
          "name": "description",
          "type": "string"
        },
        {
          "internalType": "address",
          "name": "eventOwner",
          "type": "address"
        },
        {
          "internalType": "uint32",
          "name": "startTimeStamp",
          "type": "uint32"
        }
      ],
      "stateMutability": "view",
      "type": "function",
      "constant": true
    },
    {
      "inputs": [
        {
          "internalType": "string",
          "name": "_name",
          "type": "string"
        },
        {
          "internalType": "string",
          "name": "_description",
          "type": "string"
        },
        {
          "internalType": "uint32",
          "name": "startTimeStamp",
          "type": "uint32"
        }
      ],
      "name": "createNewEvent",
      "outputs": [
        {
          "internalType": "uint256",
          "name": "",
          "type": "uint256"
        }
      ],
      "stateMutability": "nonpayable",
      "type": "function"
    },
    {
      "inputs": [],
      "name": "getEventCount",
      "outputs": [
        {
          "internalType": "uint256",
          "name": "",
          "type": "uint256"
        }
      ],
      "stateMutability": "view",
      "type": "function",
      "constant": true
    },
    {
      "inputs": [
        {
          "internalType": "uint256",
          "name": "eventId",
          "type": "uint256"
        }
      ],
      "name": "getEventInformation",
      "outputs": [
        {
          "internalType": "string",
          "name": "",
          "type": "string"
        },
        {
          "internalType": "string",
          "name": "",
          "type": "string"
        },
        {
          "internalType": "address",
          "name": "",
          "type": "address"
        },
        {
          "internalType": "uint32",
          "name": "",
          "type": "uint32"
        }
      ],
      "stateMutability": "view",
      "type": "function",
      "constant": true
    }
  ],
  "bytecode": "0x60806040526000805534801561001457600080fd5b50610b2a806100246000396000f3fe608060405234801561001057600080fd5b50600436106100575760003560e01c80630b7914301461005c57806391039dee1461008f578063c6732abc146100ad578063d9e48f5c146100dd578063dc8855ae146100fb575b600080fd5b6100766004803603810190610071919061068c565b61012e565b60405161008694939291906107b2565b60405180910390f35b61009761029e565b6040516100a49190610814565b60405180910390f35b6100c760048036038101906100c29190610990565b6102a4565b6040516100d49190610814565b60405180910390f35b6100e56103aa565b6040516100f29190610814565b60405180910390f35b6101156004803603810190610110919061068c565b6103b3565b60405161012594939291906107b2565b60405180910390f35b600160205280600052604060002060009150905080600001805461015190610a4a565b80601f016020809104026020016040519081016040528092919081815260200182805461017d90610a4a565b80156101ca5780601f1061019f576101008083540402835291602001916101ca565b820191906000526020600020905b8154815290600101906020018083116101ad57829003601f168201915b5050505050908060010180546101df90610a4a565b80601f016020809104026020016040519081016040528092919081815260200182805461020b90610a4a565b80156102585780601f1061022d57610100808354040283529160200191610258565b820191906000526020600020905b81548152906001019060200180831161023b57829003601f168201915b5050505050908060020160009054906101000a900473ffffffffffffffffffffffffffffffffffffffff16908060020160149054906101000a900463ffffffff16905084565b60005481565b6000806000808154809291906102b990610aab565b919050559050846001600083815260200190815260200160002060000190805190602001906102e992919061059f565b508360016000838152602001908152602001600020600101908051906020019061031492919061059f565b50336001600083815260200190815260200160002060020160006101000a81548173ffffffffffffffffffffffffffffffffffffffff021916908373ffffffffffffffffffffffffffffffffffffffff160217905550826001600083815260200190815260200160002060020160146101000a81548163ffffffff021916908363ffffffff160217905550809150509392505050565b60008054905090565b6060806000806000600160008781526020019081526020016000206040518060800160405290816000820180546103e990610a4a565b80601f016020809104026020016040519081016040528092919081815260200182805461041590610a4a565b80156104625780601f1061043757610100808354040283529160200191610462565b820191906000526020600020905b81548152906001019060200180831161044557829003601f168201915b5050505050815260200160018201805461047b90610a4a565b80601f01602080910402602001604051908101604052809291908181526020018280546104a790610a4a565b80156104f45780601f106104c9576101008083540402835291602001916104f4565b820191906000526020600020905b8154815290600101906020018083116104d757829003601f168201915b505050505081526020016002820160009054906101000a900473ffffffffffffffffffffffffffffffffffffffff1673ffffffffffffffffffffffffffffffffffffffff1673ffffffffffffffffffffffffffffffffffffffff1681526020016002820160149054906101000a900463ffffffff1663ffffffff1663ffffffff1681525050905080600001518160200151826040015183606001519450945094509450509193509193565b8280546105ab90610a4a565b90600052602060002090601f0160209004810192826105cd5760008555610614565b82601f106105e657805160ff1916838001178555610614565b82800160010185558215610614579182015b828111156106135782518255916020019190600101906105f8565b5b5090506106219190610625565b5090565b5b8082111561063e576000816000905550600101610626565b5090565b6000604051905090565b600080fd5b600080fd5b6000819050919050565b61066981610656565b811461067457600080fd5b50565b60008135905061068681610660565b92915050565b6000602082840312156106a2576106a161064c565b5b60006106b084828501610677565b91505092915050565b600081519050919050565b600082825260208201905092915050565b60005b838110156106f35780820151818401526020810190506106d8565b83811115610702576000848401525b50505050565b6000601f19601f8301169050919050565b6000610724826106b9565b61072e81856106c4565b935061073e8185602086016106d5565b61074781610708565b840191505092915050565b600073ffffffffffffffffffffffffffffffffffffffff82169050919050565b600061077d82610752565b9050919050565b61078d81610772565b82525050565b600063ffffffff82169050919050565b6107ac81610793565b82525050565b600060808201905081810360008301526107cc8187610719565b905081810360208301526107e08186610719565b90506107ef6040830185610784565b6107fc60608301846107a3565b95945050505050565b61080e81610656565b82525050565b60006020820190506108296000830184610805565b92915050565b600080fd5b600080fd5b7f4e487b7100000000000000000000000000000000000000000000000000000000600052604160045260246000fd5b61087182610708565b810181811067ffffffffffffffff821117156108905761088f610839565b5b80604052505050565b60006108a3610642565b90506108af8282610868565b919050565b600067ffffffffffffffff8211156108cf576108ce610839565b5b6108d882610708565b9050602081019050919050565b82818337600083830152505050565b6000610907610902846108b4565b610899565b90508281526020810184848401111561092357610922610834565b5b61092e8482856108e5565b509392505050565b600082601f83011261094b5761094a61082f565b5b813561095b8482602086016108f4565b91505092915050565b61096d81610793565b811461097857600080fd5b50565b60008135905061098a81610964565b92915050565b6000806000606084860312156109a9576109a861064c565b5b600084013567ffffffffffffffff8111156109c7576109c6610651565b5b6109d386828701610936565b935050602084013567ffffffffffffffff8111156109f4576109f3610651565b5b610a0086828701610936565b9250506040610a118682870161097b565b9150509250925092565b7f4e487b7100000000000000000000000000000000000000000000000000000000600052602260045260246000fd5b60006002820490506001821680610a6257607f821691505b60208210811415610a7657610a75610a1b565b5b50919050565b7f4e487b7100000000000000000000000000000000000000000000000000000000600052601160045260246000fd5b6000610ab682610656565b91507fffffffffffffffffffffffffffffffffffffffffffffffffffffffffffffffff821415610ae957610ae8610a7c565b5b60018201905091905056fea26469706673582212204794b4780c9605180a95c5d24251e77f704f824e4998a532aa0d7dd693d2744564736f6c634300080b0033",
  "immutableReferences": {},
  "source": "pragma solidity >=0.4.21 <0.9.0;\n\ncontract EventContract {\n    uint256 public event_id = 0;\n\n    struct anEvent {\n        string name;\n        string description;\n        address eventOwner;\n        uint32 startTimeStamp;\n    }\n\n    mapping(uint256 => anEvent) public events;\n\n    function createNewEvent(string memory _name, string memory _description, uint32 startTimeStamp ) public returns (uint256) {\n        uint256 eid = event_id++;\n        events[eid].name = _name;\n        events[eid].description = _description;\n        events[eid].eventOwner = msg.sender;\n        events[eid].startTimeStamp = startTimeStamp;\n        return eid;\n    }\n\n\n    function getEventCount() public view returns(uint256){\n        return event_id;\n    }\n\n    function getEventInformation(uint256 eventId) public view returns (string memory, string memory, address, uint32) {\n        anEvent memory targetEvent = events[eventId];\n\n        return (targetEvent.name, targetEvent.description, targetEvent.eventOwner, targetEvent.startTimeStamp);\n    }\n \n}",
  "sourcePath": "/Users/teerasejjiraphatchandej/Desktop/my-contract/contracts/EventContract.sol",
  "compiler": {
    "name": "solc",
    "version": "0.8.11+commit.d7f03943.Emscripten.clang"
  },
  "schemaVersion": "3.4.5",
  "updatedAt": "2022-05-11T16:25:35.238Z",
  "networkType": "ethereum",
  "devdoc": {
    "kind": "dev",
    "methods": {},
    "version": 1
  },
  "userdoc": {
    "kind": "user",
    "methods": {},
    "version": 1
  }
}